{
  "contractName": "Game",
  "abi": [
    {
      "constant": true,
      "inputs": [],
      "name": "bank",
      "outputs": [
        {
          "name": "",
          "type": "uint256"
        }
      ],
      "payable": false,
      "stateMutability": "view",
      "type": "function"
    },
    {
      "constant": true,
      "inputs": [],
      "name": "price",
      "outputs": [
        {
          "name": "",
          "type": "uint256"
        }
      ],
      "payable": false,
      "stateMutability": "view",
      "type": "function"
    },
    {
      "constant": true,
      "inputs": [],
      "name": "gameDuration",
      "outputs": [
        {
          "name": "",
          "type": "uint256"
        }
      ],
      "payable": false,
      "stateMutability": "view",
      "type": "function"
    },
    {
      "constant": true,
      "inputs": [
        {
          "name": "",
          "type": "uint256"
        }
      ],
      "name": "players",
      "outputs": [
        {
          "name": "figure",
          "type": "string"
        },
        {
          "name": "joiningTime",
          "type": "uint256"
        },
        {
          "name": "existed",
          "type": "bool"
        }
      ],
      "payable": false,
      "stateMutability": "view",
      "type": "function"
    },
    {
      "anonymous": false,
      "inputs": [
        {
          "indexed": false,
          "name": "_from",
          "type": "address"
        },
        {
          "indexed": false,
          "name": "_id",
          "type": "uint256"
        },
        {
          "indexed": false,
          "name": "figure",
          "type": "string"
        }
      ],
      "name": "Joining",
      "type": "event"
    },
    {
      "anonymous": false,
      "inputs": [
        {
          "indexed": false,
          "name": "status",
          "type": "string"
        }
      ],
      "name": "FinishGame",
      "type": "event"
    },
    {
      "anonymous": false,
      "inputs": [
        {
          "indexed": false,
          "name": "status",
          "type": "string"
        }
      ],
      "name": "GameFinished",
      "type": "event"
    },
    {
      "constant": false,
      "inputs": [
        {
          "name": "_figure",
          "type": "string"
        }
      ],
      "name": "join",
      "outputs": [],
      "payable": true,
      "stateMutability": "payable",
      "type": "function"
    },
    {
      "constant": false,
      "inputs": [],
      "name": "finishGame",
      "outputs": [],
      "payable": false,
      "stateMutability": "nonpayable",
      "type": "function"
    },
    {
      "constant": true,
      "inputs": [],
      "name": "getPlayerObject",
      "outputs": [
        {
          "name": "",
          "type": "string"
        },
        {
          "name": "",
          "type": "uint256"
        }
      ],
      "payable": false,
      "stateMutability": "view",
      "type": "function"
    },
    {
      "constant": true,
      "inputs": [],
      "name": "getPlayersCount",
      "outputs": [
        {
          "name": "",
          "type": "uint256"
        }
      ],
      "payable": false,
      "stateMutability": "view",
      "type": "function"
    },
    {
      "constant": false,
      "inputs": [],
      "name": "findWinners",
      "outputs": [],
      "payable": false,
      "stateMutability": "nonpayable",
      "type": "function"
    },
    {
      "constant": false,
      "inputs": [],
      "name": "shareBank",
      "outputs": [],
      "payable": false,
      "stateMutability": "nonpayable",
      "type": "function"
    }
  ],
  "bytecode": "0x60806040526706f05b59d3b20000600055600060015563022551006002556000600355600060045534801561003357600080fd5b506109af806100436000396000f3006080604052600436106100a4576000357c0100000000000000000000000000000000000000000000000000000000900463ffffffff1680631301604b146100a95780635ff8b778146101405780636a786b071461015757806376cdb03b146101855780639fecb69f146101b0578063a035b1fe146101c7578063a76594bf146101f2578063a7f7ffef1461021d578063e1f0c37614610234578063f71d96cb1461025f575b600080fd5b3480156100b557600080fd5b506100be610317565b6040518080602001838152602001828103825284818151815260200191508051906020019080838360005b838110156101045780820151818401526020810190506100e9565b50505050905090810190601f1680156101315780820380516001836020036101000a031916815260200191505b50935050505060405180910390f35b34801561014c57600080fd5b50610155610444565b005b610183600480360381019080803590602001908201803590602001919091929391929390505050610446565b005b34801561019157600080fd5b5061019a610700565b6040518082815260200191505060405180910390f35b3480156101bc57600080fd5b506101c5610706565b005b3480156101d357600080fd5b506101dc6107e5565b6040518082815260200191505060405180910390f35b3480156101fe57600080fd5b506102076107eb565b6040518082815260200191505060405180910390f35b34801561022957600080fd5b506102326107f8565b005b34801561024057600080fd5b506102496107fa565b6040518082815260200191505060405180910390f35b34801561026b57600080fd5b5061028a60048036038101908080359060200190929190505050610800565b604051808060200184815260200183151515158152602001828103825285818151815260200191508051906020019080838360005b838110156102da5780820151818401526020810190506102bf565b50505050905090810190601f1680156103075780820380516001836020036101000a031916815260200191505b5094505050505060405180910390f35b6060600080600660003373ffffffffffffffffffffffffffffffffffffffff1673ffffffffffffffffffffffffffffffffffffffff16815260200190815260200160002054905060058181548110151561036d57fe5b906000526020600020906003020160000160058281548110151561038d57fe5b906000526020600020906003020160010154818054600181600116156101000203166002900480601f0160208091040260200160405190810160405280929190818152602001828054600181600116156101000203166002900480156104345780601f1061040957610100808354040283529160200191610434565b820191906000526020600020905b81548152906001019060200180831161041757829003601f168201915b5050505050915092509250509091565b565b600080600760003373ffffffffffffffffffffffffffffffffffffffff1673ffffffffffffffffffffffffffffffffffffffff1681526020019081526020016000205414151561049557600080fd5b60005434101515156104a657600080fd5b6001600560606040519081016040528086868080601f0160208091040260200160405190810160405280939291908181526020018383808284378201915050505050508152602001428152602001600115158152509080600181540180825580915050906001820390600052602060002090600302016000909192909190915060008201518160000190805190602001906105429291906108de565b506020820151816001015560408201518160020160006101000a81548160ff02191690831515021790555050500390507fb77a4ed70b87975aff812cefda2fc476db3bffd3e7993948bf4406503f4305ea33828585604051808573ffffffffffffffffffffffffffffffffffffffff1673ffffffffffffffffffffffffffffffffffffffff16815260200184815260200180602001828103825284848281815260200192508082843782019150509550505050505060405180910390a180600660003373ffffffffffffffffffffffffffffffffffffffff1673ffffffffffffffffffffffffffffffffffffffff1681526020019081526020016000208190555034600760003373ffffffffffffffffffffffffffffffffffffffff1673ffffffffffffffffffffffffffffffffffffffff16815260200190815260200160002081905550336008600083815260200190815260200160002060006101000a81548173ffffffffffffffffffffffffffffffffffffffff021916908373ffffffffffffffffffffffffffffffffffffffff160217905550346001600082825401925050819055506000543411156106fb57346000819055505b505050565b60015481565b3373ffffffffffffffffffffffffffffffffffffffff166108fc600760003373ffffffffffffffffffffffffffffffffffffffff1673ffffffffffffffffffffffffffffffffffffffff168152602001908152602001600020549081150290604051600060405180830381858888f19350505050507fc11ea087dadfdbf4e99ab4c62c33cfc957f8c968ba60bd048208022942fa6aa36040518080602001828103825260118152602001807f47616d65207761732066696e697368656400000000000000000000000000000081525060200191505060405180910390a1565b60005481565b6000600580549050905090565b565b60025481565b60058181548110151561080f57fe5b9060005260206000209060030201600091509050806000018054600181600116156101000203166002900480601f0160208091040260200160405190810160405280929190818152602001828054600181600116156101000203166002900480156108bb5780601f10610890576101008083540402835291602001916108bb565b820191906000526020600020905b81548152906001019060200180831161089e57829003601f168201915b5050505050908060010154908060020160009054906101000a900460ff16905083565b828054600181600116156101000203166002900490600052602060002090601f016020900481019282601f1061091f57805160ff191683800117855561094d565b8280016001018555821561094d579182015b8281111561094c578251825591602001919060010190610931565b5b50905061095a919061095e565b5090565b61098091905b8082111561097c576000816000905550600101610964565b5090565b905600a165627a7a72305820ffbb22dc5de4eed720b4cb1fd660e31e4ac99c7b9fc588767cec963269d6e33f0029",
  "source": "pragma solidity ^0.4.23;\n\ncontract Game {\n  uint public price = 0.5 ether;\n  uint public bank = 0;\n  uint public gameDuration = 10*60*60*1000;\n\n  uint commission = 0;\n  uint startGameTime = 0;\n\n  event Joining(\n    address _from,\n    uint _id,\n    string figure\n  );\n\n  event FinishGame(\n    string status\n  );\n\n  event GameFinished(\n    string status\n  );\n\n  struct Player {\n    string figure;\n    uint joiningTime;\n    bool existed;\n  }\n\n  Player[] public players;\n\n  mapping(address => uint) addressToId;\n  mapping(address => uint) addressToValue;\n  mapping(uint => address) idToAddress;\n\n  function join(string _figure) external payable {\n    // TODO: check if player already was joined\n    // Question: I want to check if player already was joined via addressToId mapping\n    require(addressToValue[msg.sender] == 0);\n    require(msg.value >= price);\n    uint id = players.push(Player(_figure, now, true)) - 1;\n\n    emit Joining(msg.sender, id, _figure);\n\n    addressToId[msg.sender] = id;\n    addressToValue[msg.sender] = msg.value;\n    idToAddress[id] = msg.sender;\n\n    bank += msg.value;\n    // TODO: add logic for game start\n     if (msg.value > price) {\n       // startGameTime = now;\n       price = msg.value;\n     }\n  }\n\n  function finishGame() public {\n//    uint arrayLength = players.length;\n\n//    for (uint i = 0; i < arrayLength; i++) {\n      msg.sender.send(addressToValue[msg.sender]);\n//    }\n\n    emit GameFinished('Game was finished');\n    // TODO: reset default values\n    // TODO: share bank across winners\n  }\n\n  // Getters\n  function getPlayerObject() external view returns (string, uint) {\n    uint id = addressToId[msg.sender];\n\n    return (players[id].figure, players[id].joiningTime);\n  }\n\n  function getPlayersCount() external view returns (uint) {\n    return players.length;\n  }\n\n  // TODO: call this function\n  //  function getTimeLeft(uint timestamp) external view returns(uint) {\n  //    return timestamp - startGameTime;\n  //  }\n  //\n  //  function setStartGameTime(uint timestamp) external {\n  //    startGameTime = timestamp;\n  //  }\n\n  function findWinners() {\n    // TODO: find winners\n    // case 1: share bank across all \"rocks\"\n    // case 2: share bank across all \"papers\"\n    // case 3: share bank across all \"scissors\"\n    // case 4: draw!\n  }\n\n  function shareBank() {\n    // TODO: implement\n  }\n\n  // TODO: Throws error. Maybe it should be modifier!\n  // Error: VM Exception while processing transaction: invalid opcode\n  // function isPlayerExist() public returns(bool) {\n  //   uint id = addressToId[msg.sender];\n  //   bool isExisted = players[id].existed;\n  //\n  //   return isExisted;\n  // }\n}\n",
  "sourcePath": "/Users/admin/WebstormProjects/rock–paper–scissors/contracts/Game.sol",
  "compiler": {
    "name": "solc",
    "version": "0.4.24+commit.e67f0147.Emscripten.clang"
  },
  "schemaVersion": "2.0.1",
  "updatedAt": "2018-07-15T22:31:04.123Z"
}